{
  "_format": "hh-sol-artifact-1",
  "contractName": "CrazyDevs",
  "sourceName": "contracts/CrazyDevs.sol",
  "abi": [
    {
      "inputs": [],
      "stateMutability": "nonpayable",
      "type": "constructor"
    },
    {
      "anonymous": false,
      "inputs": [
        {
          "indexed": true,
          "internalType": "address",
          "name": "owner",
          "type": "address"
        },
        {
          "indexed": true,
          "internalType": "address",
          "name": "approved",
          "type": "address"
        },
        {
          "indexed": true,
          "internalType": "uint256",
          "name": "tokenId",
          "type": "uint256"
        }
      ],
      "name": "Approval",
      "type": "event"
    },
    {
      "anonymous": false,
      "inputs": [
        {
          "indexed": true,
          "internalType": "address",
          "name": "owner",
          "type": "address"
        },
        {
          "indexed": true,
          "internalType": "address",
          "name": "operator",
          "type": "address"
        },
        {
          "indexed": false,
          "internalType": "bool",
          "name": "approved",
          "type": "bool"
        }
      ],
      "name": "ApprovalForAll",
      "type": "event"
    },
    {
      "anonymous": false,
      "inputs": [
        {
          "indexed": true,
          "internalType": "address",
          "name": "previousOwner",
          "type": "address"
        },
        {
          "indexed": true,
          "internalType": "address",
          "name": "newOwner",
          "type": "address"
        }
      ],
      "name": "OwnershipTransferred",
      "type": "event"
    },
    {
      "anonymous": false,
      "inputs": [
        {
          "indexed": true,
          "internalType": "address",
          "name": "from",
          "type": "address"
        },
        {
          "indexed": true,
          "internalType": "address",
          "name": "to",
          "type": "address"
        },
        {
          "indexed": true,
          "internalType": "uint256",
          "name": "tokenId",
          "type": "uint256"
        }
      ],
      "name": "Transfer",
      "type": "event"
    },
    {
      "inputs": [
        {
          "internalType": "address",
          "name": "to",
          "type": "address"
        },
        {
          "internalType": "uint256",
          "name": "tokenId",
          "type": "uint256"
        }
      ],
      "name": "approve",
      "outputs": [],
      "stateMutability": "nonpayable",
      "type": "function"
    },
    {
      "inputs": [
        {
          "internalType": "address",
          "name": "owner",
          "type": "address"
        }
      ],
      "name": "balanceOf",
      "outputs": [
        {
          "internalType": "uint256",
          "name": "",
          "type": "uint256"
        }
      ],
      "stateMutability": "view",
      "type": "function"
    },
    {
      "inputs": [],
      "name": "count",
      "outputs": [
        {
          "internalType": "uint256",
          "name": "",
          "type": "uint256"
        }
      ],
      "stateMutability": "view",
      "type": "function"
    },
    {
      "inputs": [
        {
          "internalType": "uint256",
          "name": "tokenId",
          "type": "uint256"
        }
      ],
      "name": "getApproved",
      "outputs": [
        {
          "internalType": "address",
          "name": "",
          "type": "address"
        }
      ],
      "stateMutability": "view",
      "type": "function"
    },
    {
      "inputs": [
        {
          "internalType": "address",
          "name": "owner",
          "type": "address"
        },
        {
          "internalType": "address",
          "name": "operator",
          "type": "address"
        }
      ],
      "name": "isApprovedForAll",
      "outputs": [
        {
          "internalType": "bool",
          "name": "",
          "type": "bool"
        }
      ],
      "stateMutability": "view",
      "type": "function"
    },
    {
      "inputs": [
        {
          "internalType": "string",
          "name": "uri",
          "type": "string"
        }
      ],
      "name": "isContentOwned",
      "outputs": [
        {
          "internalType": "bool",
          "name": "",
          "type": "bool"
        }
      ],
      "stateMutability": "view",
      "type": "function"
    },
    {
      "inputs": [],
      "name": "name",
      "outputs": [
        {
          "internalType": "string",
          "name": "",
          "type": "string"
        }
      ],
      "stateMutability": "view",
      "type": "function"
    },
    {
      "inputs": [],
      "name": "owner",
      "outputs": [
        {
          "internalType": "address",
          "name": "",
          "type": "address"
        }
      ],
      "stateMutability": "view",
      "type": "function"
    },
    {
      "inputs": [
        {
          "internalType": "uint256",
          "name": "tokenId",
          "type": "uint256"
        }
      ],
      "name": "ownerOf",
      "outputs": [
        {
          "internalType": "address",
          "name": "",
          "type": "address"
        }
      ],
      "stateMutability": "view",
      "type": "function"
    },
    {
      "inputs": [
        {
          "internalType": "address",
          "name": "recipient",
          "type": "address"
        },
        {
          "internalType": "string",
          "name": "uri",
          "type": "string"
        }
      ],
      "name": "payToMint",
      "outputs": [],
      "stateMutability": "payable",
      "type": "function"
    },
    {
      "inputs": [],
      "name": "renounceOwnership",
      "outputs": [],
      "stateMutability": "nonpayable",
      "type": "function"
    },
    {
      "inputs": [
        {
          "internalType": "address",
          "name": "to",
          "type": "address"
        },
        {
          "internalType": "string",
          "name": "uri",
          "type": "string"
        }
      ],
      "name": "safeMint",
      "outputs": [],
      "stateMutability": "nonpayable",
      "type": "function"
    },
    {
      "inputs": [
        {
          "internalType": "address",
          "name": "from",
          "type": "address"
        },
        {
          "internalType": "address",
          "name": "to",
          "type": "address"
        },
        {
          "internalType": "uint256",
          "name": "tokenId",
          "type": "uint256"
        }
      ],
      "name": "safeTransferFrom",
      "outputs": [],
      "stateMutability": "nonpayable",
      "type": "function"
    },
    {
      "inputs": [
        {
          "internalType": "address",
          "name": "from",
          "type": "address"
        },
        {
          "internalType": "address",
          "name": "to",
          "type": "address"
        },
        {
          "internalType": "uint256",
          "name": "tokenId",
          "type": "uint256"
        },
        {
          "internalType": "bytes",
          "name": "_data",
          "type": "bytes"
        }
      ],
      "name": "safeTransferFrom",
      "outputs": [],
      "stateMutability": "nonpayable",
      "type": "function"
    },
    {
      "inputs": [
        {
          "internalType": "address",
          "name": "operator",
          "type": "address"
        },
        {
          "internalType": "bool",
          "name": "approved",
          "type": "bool"
        }
      ],
      "name": "setApprovalForAll",
      "outputs": [],
      "stateMutability": "nonpayable",
      "type": "function"
    },
    {
      "inputs": [
        {
          "internalType": "bytes4",
          "name": "interfaceId",
          "type": "bytes4"
        }
      ],
      "name": "supportsInterface",
      "outputs": [
        {
          "internalType": "bool",
          "name": "",
          "type": "bool"
        }
      ],
      "stateMutability": "view",
      "type": "function"
    },
    {
      "inputs": [],
      "name": "symbol",
      "outputs": [
        {
          "internalType": "string",
          "name": "",
          "type": "string"
        }
      ],
      "stateMutability": "view",
      "type": "function"
    },
    {
      "inputs": [
        {
          "internalType": "uint256",
          "name": "tokenId",
          "type": "uint256"
        }
      ],
      "name": "tokenURI",
      "outputs": [
        {
          "internalType": "string",
          "name": "",
          "type": "string"
        }
      ],
      "stateMutability": "view",
      "type": "function"
    },
    {
      "inputs": [
        {
          "internalType": "address",
          "name": "from",
          "type": "address"
        },
        {
          "internalType": "address",
          "name": "to",
          "type": "address"
        },
        {
          "internalType": "uint256",
          "name": "tokenId",
          "type": "uint256"
        }
      ],
      "name": "transferFrom",
      "outputs": [],
      "stateMutability": "nonpayable",
      "type": "function"
    },
    {
      "inputs": [
        {
          "internalType": "address",
          "name": "newOwner",
          "type": "address"
        }
      ],
      "name": "transferOwnership",
      "outputs": [],
      "stateMutability": "nonpayable",
      "type": "function"
    }
  ],
  "bytecode": "0x60806040523480156200001157600080fd5b506040518060400160405280600981526020017f4372617a794465767300000000000000000000000000000000000000000000008152506040518060400160405280600481526020017f4344455600000000000000000000000000000000000000000000000000000000815250816000908051906020019062000096929190620001a6565b508060019080519060200190620000af929190620001a6565b505050620000d2620000c6620000d860201b60201c565b620000e060201b60201c565b620002bb565b600033905090565b6000600760009054906101000a900473ffffffffffffffffffffffffffffffffffffffff16905081600760006101000a81548173ffffffffffffffffffffffffffffffffffffffff021916908373ffffffffffffffffffffffffffffffffffffffff1602179055508173ffffffffffffffffffffffffffffffffffffffff168173ffffffffffffffffffffffffffffffffffffffff167f8be0079c531659141344cd1fd0a4f28419497f9722a3daafe3b4186f6b6457e060405160405180910390a35050565b828054620001b49062000256565b90600052602060002090601f016020900481019282620001d8576000855562000224565b82601f10620001f357805160ff191683800117855562000224565b8280016001018555821562000224579182015b828111156200022357825182559160200191906001019062000206565b5b50905062000233919062000237565b5090565b5b808211156200025257600081600090555060010162000238565b5090565b600060028204905060018216806200026f57607f821691505b602082108114156200028657620002856200028c565b5b50919050565b7f4e487b7100000000000000000000000000000000000000000000000000000000600052602260045260246000fd5b61358c80620002cb6000396000f3fe60806040526004361061011f5760003560e01c8063715018a6116100a0578063b88d4fde11610064578063b88d4fde146103d8578063c87b56dd14610401578063d204c45e1461043e578063e985e9c514610467578063f2fde38b146104a45761011f565b8063715018a6146103055780638da5cb5b1461031c57806395d89b41146103475780639f1cabc614610372578063a22cb465146103af5761011f565b806323b872dd116100e757806323b872dd1461021d57806342842e0e14610246578063615fd9e21461026f5780636352211e1461028b57806370a08231146102c85761011f565b806301ffc9a71461012457806306661abd1461016157806306fdde031461018c578063081812fc146101b7578063095ea7b3146101f4575b600080fd5b34801561013057600080fd5b5061014b60048036038101906101469190612379565b6104cd565b6040516101589190612886565b60405180910390f35b34801561016d57600080fd5b506101766105af565b6040516101839190612b63565b60405180910390f35b34801561019857600080fd5b506101a16105c0565b6040516101ae91906128a1565b60405180910390f35b3480156101c357600080fd5b506101de60048036038101906101d9919061240c565b610652565b6040516101eb919061281f565b60405180910390f35b34801561020057600080fd5b5061021b6004803603810190610216919061233d565b6106d7565b005b34801561022957600080fd5b50610244600480360381019061023f91906121e3565b6107ef565b005b34801561025257600080fd5b5061026d600480360381019061026891906121e3565b61084f565b005b610289600480360381019061028491906122e9565b61086f565b005b34801561029757600080fd5b506102b260048036038101906102ad919061240c565b6109af565b6040516102bf919061281f565b60405180910390f35b3480156102d457600080fd5b506102ef60048036038101906102ea919061217e565b610a61565b6040516102fc9190612b63565b60405180910390f35b34801561031157600080fd5b5061031a610b19565b005b34801561032857600080fd5b50610331610ba1565b60405161033e919061281f565b60405180910390f35b34801561035357600080fd5b5061035c610bcb565b60405161036991906128a1565b60405180910390f35b34801561037e57600080fd5b50610399600480360381019061039491906123cb565b610c5d565b6040516103a69190612886565b60405180910390f35b3480156103bb57600080fd5b506103d660048036038101906103d191906122ad565b610c92565b005b3480156103e457600080fd5b506103ff60048036038101906103fa9190612232565b610ca8565b005b34801561040d57600080fd5b506104286004803603810190610423919061240c565b610d0a565b60405161043591906128a1565b60405180910390f35b34801561044a57600080fd5b50610465600480360381019061046091906122e9565b610d1c565b005b34801561047357600080fd5b5061048e600480360381019061048991906121a7565b610e45565b60405161049b9190612886565b60405180910390f35b3480156104b057600080fd5b506104cb60048036038101906104c6919061217e565b610ed9565b005b60007f80ac58cd000000000000000000000000000000000000000000000000000000007bffffffffffffffffffffffffffffffffffffffffffffffffffffffff1916827bffffffffffffffffffffffffffffffffffffffffffffffffffffffff1916148061059857507f5b5e139f000000000000000000000000000000000000000000000000000000007bffffffffffffffffffffffffffffffffffffffffffffffffffffffff1916827bffffffffffffffffffffffffffffffffffffffffffffffffffffffff1916145b806105a857506105a782610fd1565b5b9050919050565b60006105bb600861103b565b905090565b6060600080546105cf90612db9565b80601f01602080910402602001604051908101604052809291908181526020018280546105fb90612db9565b80156106485780601f1061061d57610100808354040283529160200191610648565b820191906000526020600020905b81548152906001019060200180831161062b57829003601f168201915b5050505050905090565b600061065d82611049565b61069c576040517f08c379a000000000000000000000000000000000000000000000000000000000815260040161069390612a63565b60405180910390fd5b6004600083815260200190815260200160002060009054906101000a900473ffffffffffffffffffffffffffffffffffffffff169050919050565b60006106e2826109af565b90508073ffffffffffffffffffffffffffffffffffffffff168373ffffffffffffffffffffffffffffffffffffffff161415610753576040517f08c379a000000000000000000000000000000000000000000000000000000000815260040161074a90612ae3565b60405180910390fd5b8073ffffffffffffffffffffffffffffffffffffffff166107726110b5565b73ffffffffffffffffffffffffffffffffffffffff1614806107a157506107a08161079b6110b5565b610e45565b5b6107e0576040517f08c379a00000000000000000000000000000000000000000000000000000000081526004016107d7906129a3565b60405180910390fd5b6107ea83836110bd565b505050565b6108006107fa6110b5565b82611176565b61083f576040517f08c379a000000000000000000000000000000000000000000000000000000000815260040161083690612b23565b60405180910390fd5b61084a838383611254565b505050565b61086a83838360405180602001604052806000815250610ca8565b505050565b6000815114156108b4576040517f08c379a00000000000000000000000000000000000000000000000000000000081526004016108ab90612b03565b60405180910390fd5b6108bd81610c5d565b156108fd576040517f08c379a00000000000000000000000000000000000000000000000000000000081526004016108f490612963565b60405180910390fd5b6611c37937e08000341015610947576040517f08c379a000000000000000000000000000000000000000000000000000000000815260040161093e90612b43565b60405180910390fd5b6000610953600861103b565b905061095f60086114b0565b61096983826114c6565b61097381836114e4565b600160098360405161098591906127e4565b908152602001604051809103902060006101000a81548160ff021916908315150217905550505050565b6000806002600084815260200190815260200160002060009054906101000a900473ffffffffffffffffffffffffffffffffffffffff169050600073ffffffffffffffffffffffffffffffffffffffff168173ffffffffffffffffffffffffffffffffffffffff161415610a58576040517f08c379a0000000000000000000000000000000000000000000000000000000008152600401610a4f906129e3565b60405180910390fd5b80915050919050565b60008073ffffffffffffffffffffffffffffffffffffffff168273ffffffffffffffffffffffffffffffffffffffff161415610ad2576040517f08c379a0000000000000000000000000000000000000000000000000000000008152600401610ac9906129c3565b60405180910390fd5b600360008373ffffffffffffffffffffffffffffffffffffffff1673ffffffffffffffffffffffffffffffffffffffff168152602001908152602001600020549050919050565b610b216110b5565b73ffffffffffffffffffffffffffffffffffffffff16610b3f610ba1565b73ffffffffffffffffffffffffffffffffffffffff1614610b95576040517f08c379a0000000000000000000000000000000000000000000000000000000008152600401610b8c90612a83565b60405180910390fd5b610b9f6000611558565b565b6000600760009054906101000a900473ffffffffffffffffffffffffffffffffffffffff16905090565b606060018054610bda90612db9565b80601f0160208091040260200160405190810160405280929190818152602001828054610c0690612db9565b8015610c535780601f10610c2857610100808354040283529160200191610c53565b820191906000526020600020905b815481529060010190602001808311610c3657829003601f168201915b5050505050905090565b6000600982604051610c6f91906127e4565b908152602001604051809103902060009054906101000a900460ff169050919050565b610ca4610c9d6110b5565b838361161e565b5050565b610cb9610cb36110b5565b83611176565b610cf8576040517f08c379a0000000000000000000000000000000000000000000000000000000008152600401610cef90612b23565b60405180910390fd5b610d048484848461178b565b50505050565b6060610d15826117e7565b9050919050565b610d246110b5565b73ffffffffffffffffffffffffffffffffffffffff16610d42610ba1565b73ffffffffffffffffffffffffffffffffffffffff1614610d98576040517f08c379a0000000000000000000000000000000000000000000000000000000008152600401610d8f90612a83565b60405180910390fd5b600081511415610ddd576040517f08c379a0000000000000000000000000000000000000000000000000000000008152600401610dd490612b03565b60405180910390fd5b6000610de9600861103b565b9050610df560086114b0565b610dff83826114c6565b610e0981836114e4565b6001600983604051610e1b91906127e4565b908152602001604051809103902060006101000a81548160ff021916908315150217905550505050565b6000600560008473ffffffffffffffffffffffffffffffffffffffff1673ffffffffffffffffffffffffffffffffffffffff16815260200190815260200160002060008373ffffffffffffffffffffffffffffffffffffffff1673ffffffffffffffffffffffffffffffffffffffff16815260200190815260200160002060009054906101000a900460ff16905092915050565b610ee16110b5565b73ffffffffffffffffffffffffffffffffffffffff16610eff610ba1565b73ffffffffffffffffffffffffffffffffffffffff1614610f55576040517f08c379a0000000000000000000000000000000000000000000000000000000008152600401610f4c90612a83565b60405180910390fd5b600073ffffffffffffffffffffffffffffffffffffffff168173ffffffffffffffffffffffffffffffffffffffff161415610fc5576040517f08c379a0000000000000000000000000000000000000000000000000000000008152600401610fbc906128e3565b60405180910390fd5b610fce81611558565b50565b60007f01ffc9a7000000000000000000000000000000000000000000000000000000007bffffffffffffffffffffffffffffffffffffffffffffffffffffffff1916827bffffffffffffffffffffffffffffffffffffffffffffffffffffffff1916149050919050565b600081600001549050919050565b60008073ffffffffffffffffffffffffffffffffffffffff166002600084815260200190815260200160002060009054906101000a900473ffffffffffffffffffffffffffffffffffffffff1673ffffffffffffffffffffffffffffffffffffffff1614159050919050565b600033905090565b816004600083815260200190815260200160002060006101000a81548173ffffffffffffffffffffffffffffffffffffffff021916908373ffffffffffffffffffffffffffffffffffffffff160217905550808273ffffffffffffffffffffffffffffffffffffffff16611130836109af565b73ffffffffffffffffffffffffffffffffffffffff167f8c5be1e5ebec7d5bd14f71427d1e84f3dd0314c0f7b2291e5b200ac8c7c3b92560405160405180910390a45050565b600061118182611049565b6111c0576040517f08c379a00000000000000000000000000000000000000000000000000000000081526004016111b790612983565b60405180910390fd5b60006111cb836109af565b90508073ffffffffffffffffffffffffffffffffffffffff168473ffffffffffffffffffffffffffffffffffffffff16148061123a57508373ffffffffffffffffffffffffffffffffffffffff1661122284610652565b73ffffffffffffffffffffffffffffffffffffffff16145b8061124b575061124a8185610e45565b5b91505092915050565b8273ffffffffffffffffffffffffffffffffffffffff16611274826109af565b73ffffffffffffffffffffffffffffffffffffffff16146112ca576040517f08c379a00000000000000000000000000000000000000000000000000000000081526004016112c190612aa3565b60405180910390fd5b600073ffffffffffffffffffffffffffffffffffffffff168273ffffffffffffffffffffffffffffffffffffffff16141561133a576040517f08c379a000000000000000000000000000000000000000000000000000000000815260040161133190612923565b60405180910390fd5b611345838383611939565b6113506000826110bd565b6001600360008573ffffffffffffffffffffffffffffffffffffffff1673ffffffffffffffffffffffffffffffffffffffff16815260200190815260200160002060008282546113a09190612ccf565b925050819055506001600360008473ffffffffffffffffffffffffffffffffffffffff1673ffffffffffffffffffffffffffffffffffffffff16815260200190815260200160002060008282546113f79190612c48565b92505081905550816002600083815260200190815260200160002060006101000a81548173ffffffffffffffffffffffffffffffffffffffff021916908373ffffffffffffffffffffffffffffffffffffffff160217905550808273ffffffffffffffffffffffffffffffffffffffff168473ffffffffffffffffffffffffffffffffffffffff167fddf252ad1be2c89b69c2b068fc378daa952ba7f163c4a11628f55a4df523b3ef60405160405180910390a4505050565b6001816000016000828254019250508190555050565b6114e082826040518060200160405280600081525061193e565b5050565b6114ed82611049565b61152c576040517f08c379a000000000000000000000000000000000000000000000000000000000815260040161152390612a03565b60405180910390fd5b80600660008481526020019081526020016000209080519060200190611553929190611fa2565b505050565b6000600760009054906101000a900473ffffffffffffffffffffffffffffffffffffffff16905081600760006101000a81548173ffffffffffffffffffffffffffffffffffffffff021916908373ffffffffffffffffffffffffffffffffffffffff1602179055508173ffffffffffffffffffffffffffffffffffffffff168173ffffffffffffffffffffffffffffffffffffffff167f8be0079c531659141344cd1fd0a4f28419497f9722a3daafe3b4186f6b6457e060405160405180910390a35050565b8173ffffffffffffffffffffffffffffffffffffffff168373ffffffffffffffffffffffffffffffffffffffff16141561168d576040517f08c379a000000000000000000000000000000000000000000000000000000000815260040161168490612943565b60405180910390fd5b80600560008573ffffffffffffffffffffffffffffffffffffffff1673ffffffffffffffffffffffffffffffffffffffff16815260200190815260200160002060008473ffffffffffffffffffffffffffffffffffffffff1673ffffffffffffffffffffffffffffffffffffffff16815260200190815260200160002060006101000a81548160ff0219169083151502179055508173ffffffffffffffffffffffffffffffffffffffff168373ffffffffffffffffffffffffffffffffffffffff167f17307eab39ab6107e8899845ad3d59bd9653f200f220920489ca2b5937696c318360405161177e9190612886565b60405180910390a3505050565b611796848484611254565b6117a284848484611999565b6117e1576040517f08c379a00000000000000000000000000000000000000000000000000000000081526004016117d8906128c3565b60405180910390fd5b50505050565b60606117f282611049565b611831576040517f08c379a000000000000000000000000000000000000000000000000000000000815260040161182890612a43565b60405180910390fd5b600060066000848152602001908152602001600020805461185190612db9565b80601f016020809104026020016040519081016040528092919081815260200182805461187d90612db9565b80156118ca5780601f1061189f576101008083540402835291602001916118ca565b820191906000526020600020905b8154815290600101906020018083116118ad57829003601f168201915b5050505050905060006118db611b30565b90506000815114156118f1578192505050611934565b60008251111561192657808260405160200161190e9291906127fb565b60405160208183030381529060405292505050611934565b61192f84611b6d565b925050505b919050565b505050565b6119488383611c14565b6119556000848484611999565b611994576040517f08c379a000000000000000000000000000000000000000000000000000000000815260040161198b906128c3565b60405180910390fd5b505050565b60006119ba8473ffffffffffffffffffffffffffffffffffffffff16611de2565b15611b23578373ffffffffffffffffffffffffffffffffffffffff1663150b7a026119e36110b5565b8786866040518563ffffffff1660e01b8152600401611a05949392919061283a565b602060405180830381600087803b158015611a1f57600080fd5b505af1925050508015611a5057506040513d601f19601f82011682018060405250810190611a4d91906123a2565b60015b611ad3573d8060008114611a80576040519150601f19603f3d011682016040523d82523d6000602084013e611a85565b606091505b50600081511415611acb576040517f08c379a0000000000000000000000000000000000000000000000000000000008152600401611ac2906128c3565b60405180910390fd5b805181602001fd5b63150b7a0260e01b7bffffffffffffffffffffffffffffffffffffffffffffffffffffffff1916817bffffffffffffffffffffffffffffffffffffffffffffffffffffffff191614915050611b28565b600190505b949350505050565b60606040518060400160405280600781526020017f697066733a2f2f00000000000000000000000000000000000000000000000000815250905090565b6060611b7882611049565b611bb7576040517f08c379a0000000000000000000000000000000000000000000000000000000008152600401611bae90612ac3565b60405180910390fd5b6000611bc1611b30565b90506000815111611be15760405180602001604052806000815250611c0c565b80611beb84611df5565b604051602001611bfc9291906127fb565b6040516020818303038152906040525b915050919050565b600073ffffffffffffffffffffffffffffffffffffffff168273ffffffffffffffffffffffffffffffffffffffff161415611c84576040517f08c379a0000000000000000000000000000000000000000000000000000000008152600401611c7b90612a23565b60405180910390fd5b611c8d81611049565b15611ccd576040517f08c379a0000000000000000000000000000000000000000000000000000000008152600401611cc490612903565b60405180910390fd5b611cd960008383611939565b6001600360008473ffffffffffffffffffffffffffffffffffffffff1673ffffffffffffffffffffffffffffffffffffffff1681526020019081526020016000206000828254611d299190612c48565b92505081905550816002600083815260200190815260200160002060006101000a81548173ffffffffffffffffffffffffffffffffffffffff021916908373ffffffffffffffffffffffffffffffffffffffff160217905550808273ffffffffffffffffffffffffffffffffffffffff16600073ffffffffffffffffffffffffffffffffffffffff167fddf252ad1be2c89b69c2b068fc378daa952ba7f163c4a11628f55a4df523b3ef60405160405180910390a45050565b600080823b905060008111915050919050565b60606000821415611e3d576040518060400160405280600181526020017f30000000000000000000000000000000000000000000000000000000000000008152509050611f9d565b600082905060005b60008214611e6f578080611e5890612e1c565b915050600a82611e689190612c9e565b9150611e45565b60008167ffffffffffffffff811115611eb1577f4e487b7100000000000000000000000000000000000000000000000000000000600052604160045260246000fd5b6040519080825280601f01601f191660200182016040528015611ee35781602001600182028036833780820191505090505b5090505b60008514611f9657600182611efc9190612ccf565b9150600a85611f0b9190612e65565b6030611f179190612c48565b60f81b818381518110611f53577f4e487b7100000000000000000000000000000000000000000000000000000000600052603260045260246000fd5b60200101907effffffffffffffffffffffffffffffffffffffffffffffffffffffffffffff1916908160001a905350600a85611f8f9190612c9e565b9450611ee7565b8093505050505b919050565b828054611fae90612db9565b90600052602060002090601f016020900481019282611fd05760008555612017565b82601f10611fe957805160ff1916838001178555612017565b82800160010185558215612017579182015b82811115612016578251825591602001919060010190611ffb565b5b5090506120249190612028565b5090565b5b80821115612041576000816000905550600101612029565b5090565b600061205861205384612ba3565b612b7e565b90508281526020810184848401111561207057600080fd5b61207b848285612d77565b509392505050565b600061209661209184612bd4565b612b7e565b9050828152602081018484840111156120ae57600080fd5b6120b9848285612d77565b509392505050565b6000813590506120d0816134fa565b92915050565b6000813590506120e581613511565b92915050565b6000813590506120fa81613528565b92915050565b60008151905061210f81613528565b92915050565b600082601f83011261212657600080fd5b8135612136848260208601612045565b91505092915050565b600082601f83011261215057600080fd5b8135612160848260208601612083565b91505092915050565b6000813590506121788161353f565b92915050565b60006020828403121561219057600080fd5b600061219e848285016120c1565b91505092915050565b600080604083850312156121ba57600080fd5b60006121c8858286016120c1565b92505060206121d9858286016120c1565b9150509250929050565b6000806000606084860312156121f857600080fd5b6000612206868287016120c1565b9350506020612217868287016120c1565b925050604061222886828701612169565b9150509250925092565b6000806000806080858703121561224857600080fd5b6000612256878288016120c1565b9450506020612267878288016120c1565b935050604061227887828801612169565b925050606085013567ffffffffffffffff81111561229557600080fd5b6122a187828801612115565b91505092959194509250565b600080604083850312156122c057600080fd5b60006122ce858286016120c1565b92505060206122df858286016120d6565b9150509250929050565b600080604083850312156122fc57600080fd5b600061230a858286016120c1565b925050602083013567ffffffffffffffff81111561232757600080fd5b6123338582860161213f565b9150509250929050565b6000806040838503121561235057600080fd5b600061235e858286016120c1565b925050602061236f85828601612169565b9150509250929050565b60006020828403121561238b57600080fd5b6000612399848285016120eb565b91505092915050565b6000602082840312156123b457600080fd5b60006123c284828501612100565b91505092915050565b6000602082840312156123dd57600080fd5b600082013567ffffffffffffffff8111156123f757600080fd5b6124038482850161213f565b91505092915050565b60006020828403121561241e57600080fd5b600061242c84828501612169565b91505092915050565b61243e81612d03565b82525050565b61244d81612d15565b82525050565b600061245e82612c05565b6124688185612c1b565b9350612478818560208601612d86565b61248181612f52565b840191505092915050565b600061249782612c10565b6124a18185612c2c565b93506124b1818560208601612d86565b6124ba81612f52565b840191505092915050565b60006124d082612c10565b6124da8185612c3d565b93506124ea818560208601612d86565b80840191505092915050565b6000612503603283612c2c565b915061250e82612f63565b604082019050919050565b6000612526602683612c2c565b915061253182612fb2565b604082019050919050565b6000612549601c83612c2c565b915061255482613001565b602082019050919050565b600061256c602483612c2c565b91506125778261302a565b604082019050919050565b600061258f601983612c2c565b915061259a82613079565b602082019050919050565b60006125b2601283612c2c565b91506125bd826130a2565b602082019050919050565b60006125d5602c83612c2c565b91506125e0826130cb565b604082019050919050565b60006125f8603883612c2c565b91506126038261311a565b604082019050919050565b600061261b602a83612c2c565b915061262682613169565b604082019050919050565b600061263e602983612c2c565b9150612649826131b8565b604082019050919050565b6000612661602e83612c2c565b915061266c82613207565b604082019050919050565b6000612684602083612c2c565b915061268f82613256565b602082019050919050565b60006126a7603183612c2c565b91506126b28261327f565b604082019050919050565b60006126ca602c83612c2c565b91506126d5826132ce565b604082019050919050565b60006126ed602083612c2c565b91506126f88261331d565b602082019050919050565b6000612710602983612c2c565b915061271b82613346565b604082019050919050565b6000612733602f83612c2c565b915061273e82613395565b604082019050919050565b6000612756602183612c2c565b9150612761826133e4565b604082019050919050565b6000612779601583612c2c565b915061278482613433565b602082019050919050565b600061279c603183612c2c565b91506127a78261345c565b604082019050919050565b60006127bf602883612c2c565b91506127ca826134ab565b604082019050919050565b6127de81612d6d565b82525050565b60006127f082846124c5565b915081905092915050565b600061280782856124c5565b915061281382846124c5565b91508190509392505050565b60006020820190506128346000830184612435565b92915050565b600060808201905061284f6000830187612435565b61285c6020830186612435565b61286960408301856127d5565b818103606083015261287b8184612453565b905095945050505050565b600060208201905061289b6000830184612444565b92915050565b600060208201905081810360008301526128bb818461248c565b905092915050565b600060208201905081810360008301526128dc816124f6565b9050919050565b600060208201905081810360008301526128fc81612519565b9050919050565b6000602082019050818103600083015261291c8161253c565b9050919050565b6000602082019050818103600083015261293c8161255f565b9050919050565b6000602082019050818103600083015261295c81612582565b9050919050565b6000602082019050818103600083015261297c816125a5565b9050919050565b6000602082019050818103600083015261299c816125c8565b9050919050565b600060208201905081810360008301526129bc816125eb565b9050919050565b600060208201905081810360008301526129dc8161260e565b9050919050565b600060208201905081810360008301526129fc81612631565b9050919050565b60006020820190508181036000830152612a1c81612654565b9050919050565b60006020820190508181036000830152612a3c81612677565b9050919050565b60006020820190508181036000830152612a5c8161269a565b9050919050565b60006020820190508181036000830152612a7c816126bd565b9050919050565b60006020820190508181036000830152612a9c816126e0565b9050919050565b60006020820190508181036000830152612abc81612703565b9050919050565b60006020820190508181036000830152612adc81612726565b9050919050565b60006020820190508181036000830152612afc81612749565b9050919050565b60006020820190508181036000830152612b1c8161276c565b9050919050565b60006020820190508181036000830152612b3c8161278f565b9050919050565b60006020820190508181036000830152612b5c816127b2565b9050919050565b6000602082019050612b7860008301846127d5565b92915050565b6000612b88612b99565b9050612b948282612deb565b919050565b6000604051905090565b600067ffffffffffffffff821115612bbe57612bbd612f23565b5b612bc782612f52565b9050602081019050919050565b600067ffffffffffffffff821115612bef57612bee612f23565b5b612bf882612f52565b9050602081019050919050565b600081519050919050565b600081519050919050565b600082825260208201905092915050565b600082825260208201905092915050565b600081905092915050565b6000612c5382612d6d565b9150612c5e83612d6d565b9250827fffffffffffffffffffffffffffffffffffffffffffffffffffffffffffffffff03821115612c9357612c92612e96565b5b828201905092915050565b6000612ca982612d6d565b9150612cb483612d6d565b925082612cc457612cc3612ec5565b5b828204905092915050565b6000612cda82612d6d565b9150612ce583612d6d565b925082821015612cf857612cf7612e96565b5b828203905092915050565b6000612d0e82612d4d565b9050919050565b60008115159050919050565b60007fffffffff0000000000000000000000000000000000000000000000000000000082169050919050565b600073ffffffffffffffffffffffffffffffffffffffff82169050919050565b6000819050919050565b82818337600083830152505050565b60005b83811015612da4578082015181840152602081019050612d89565b83811115612db3576000848401525b50505050565b60006002820490506001821680612dd157607f821691505b60208210811415612de557612de4612ef4565b5b50919050565b612df482612f52565b810181811067ffffffffffffffff82111715612e1357612e12612f23565b5b80604052505050565b6000612e2782612d6d565b91507fffffffffffffffffffffffffffffffffffffffffffffffffffffffffffffffff821415612e5a57612e59612e96565b5b600182019050919050565b6000612e7082612d6d565b9150612e7b83612d6d565b925082612e8b57612e8a612ec5565b5b828206905092915050565b7f4e487b7100000000000000000000000000000000000000000000000000000000600052601160045260246000fd5b7f4e487b7100000000000000000000000000000000000000000000000000000000600052601260045260246000fd5b7f4e487b7100000000000000000000000000000000000000000000000000000000600052602260045260246000fd5b7f4e487b7100000000000000000000000000000000000000000000000000000000600052604160045260246000fd5b6000601f19601f8301169050919050565b7f4552433732313a207472616e7366657220746f206e6f6e20455243373231526560008201527f63656976657220696d706c656d656e7465720000000000000000000000000000602082015250565b7f4f776e61626c653a206e6577206f776e657220697320746865207a65726f206160008201527f6464726573730000000000000000000000000000000000000000000000000000602082015250565b7f4552433732313a20746f6b656e20616c7265616479206d696e74656400000000600082015250565b7f4552433732313a207472616e7366657220746f20746865207a65726f2061646460008201527f7265737300000000000000000000000000000000000000000000000000000000602082015250565b7f4552433732313a20617070726f766520746f2063616c6c657200000000000000600082015250565b7f4e544620616c7265616479206d696e7465640000000000000000000000000000600082015250565b7f4552433732313a206f70657261746f7220717565727920666f72206e6f6e657860008201527f697374656e7420746f6b656e0000000000000000000000000000000000000000602082015250565b7f4552433732313a20617070726f76652063616c6c6572206973206e6f74206f7760008201527f6e6572206e6f7220617070726f76656420666f7220616c6c0000000000000000602082015250565b7f4552433732313a2062616c616e636520717565727920666f7220746865207a6560008201527f726f206164647265737300000000000000000000000000000000000000000000602082015250565b7f4552433732313a206f776e657220717565727920666f72206e6f6e657869737460008201527f656e7420746f6b656e0000000000000000000000000000000000000000000000602082015250565b7f45524337323155524953746f726167653a2055524920736574206f66206e6f6e60008201527f6578697374656e7420746f6b656e000000000000000000000000000000000000602082015250565b7f4552433732313a206d696e7420746f20746865207a65726f2061646472657373600082015250565b7f45524337323155524953746f726167653a2055524920717565727920666f722060008201527f6e6f6e6578697374656e7420746f6b656e000000000000000000000000000000602082015250565b7f4552433732313a20617070726f76656420717565727920666f72206e6f6e657860008201527f697374656e7420746f6b656e0000000000000000000000000000000000000000602082015250565b7f4f776e61626c653a2063616c6c6572206973206e6f7420746865206f776e6572600082015250565b7f4552433732313a207472616e73666572206f6620746f6b656e2074686174206960008201527f73206e6f74206f776e0000000000000000000000000000000000000000000000602082015250565b7f4552433732314d657461646174613a2055524920717565727920666f72206e6f60008201527f6e6578697374656e7420746f6b656e0000000000000000000000000000000000602082015250565b7f4552433732313a20617070726f76616c20746f2063757272656e74206f776e6560008201527f7200000000000000000000000000000000000000000000000000000000000000602082015250565b7f555249206d757374206e6f7420626520656d7074790000000000000000000000600082015250565b7f4552433732313a207472616e736665722063616c6c6572206973206e6f74206f60008201527f776e6572206e6f7220617070726f766564000000000000000000000000000000602082015250565b7f4d696e696d756d207061796d656e74206f6620302e303035204554482069732060008201527f7265717569726564000000000000000000000000000000000000000000000000602082015250565b61350381612d03565b811461350e57600080fd5b50565b61351a81612d15565b811461352557600080fd5b50565b61353181612d21565b811461353c57600080fd5b50565b61354881612d6d565b811461355357600080fd5b5056fea26469706673582212204004d7d26c68eba4460186c159d2ace4128e577b2e4bbb5cd15ce7f9d23aca6e64736f6c63430008040033",
  "linkReferences": {},
  "deployedLinkReferences": {}
}